:020000040000FA
:100000000C945D000C9485000C9485000C94850084
:100010000C9485000C9485000C9485000C9485004C
:100020000C9485000C9485000C9485000C9485003C
:100030000C9485000C9485000C9485000C9485002C
:100040000C943B050C9485000C9409050C94E30476
:100050000C9485000C9485000C9485000C9485000C
:100060000C9485000C9485000000000024002700FB
:100070002A0000000000250028002B0004040404CE
:100080000404040402020202020203030303030342
:10009000010204081020408001020408102001021F
:1000A00004081020000000080002010000030407FB
:1000B0000000000000000000850511241FBECFEFE6
:1000C000D8E0DEBFCDBF11E0A0E0B1E0ECE8F2E1A6
:1000D00002C005900D92A634B107D9F722E0A6E43C
:1000E000B1E001C01D92AC30B207E1F710E0CDE500
:1000F000D0E004C02197FE010E943E09CC35D10713
:10010000C9F70E94CF050C9444090C940000AF92EB
:10011000BF92CF92DF92EF92FF920F931F93CF93F4
:10012000DF936C017B018B01040F151FEB015E0156
:10013000AE18BF08C017D10759F06991D601ED91EB
:10014000FC910190F081E02DC6010995892B79F78A
:10015000C501DF91CF911F910F91FF90EF90DF903C
:10016000CF90BF90AF900895FC01538D448D252F03
:1001700030E0842F90E0821B930B541710F0CF9641
:10018000089501970895FC01918D828D981761F073
:10019000A28DAE0FBF2FB11D5D968C91928D9F5F8A
:1001A0009F73928F90E008958FEF9FEF0895FC0169
:1001B000918D828D981731F0828DE80FF11D858D1C
:1001C00090E008958FEF9FEF0895FC01918D228DAF
:1001D000892F90E0805C9F4F821B91098F73992734
:1001E000089587E591E00E94E50021E0892B09F45C
:1001F00020E0822F089580E090E0892B29F00E9472
:10020000F10081110C9400000895FC01A48DA80F49
:10021000B92FB11DA35ABF4F2C91848D90E0019648
:100220008F739927848FA689B7892C93A089B18968
:100230008C91837080648C93938D848D981306C009
:100240000288F389E02D80818F7D80830895EF926D
:10025000FF920F931F93CF93DF93EC0181E0888F80
:100260009B8D8C8D98131AC0E889F989808185FF50
:1002700015C09FB7F894EE89FF896083E889F989F2
:1002800080818370806480839FBF81E090E0DF91F4
:10029000CF911F910F91FF90EF900895F62E0B8D47
:1002A00010E00F5F1F4F0F731127E02E8C8D8E1102
:1002B0000CC00FB607FCFACFE889F989808185FF69
:1002C000F5CFCE010E940501F1CFEB8DEC0FFD2F94
:1002D000F11DE35AFF4FF0829FB7F8940B8FEA8924
:1002E000FB8980818062CFCFCF93DF93EC01888D33
:1002F0008823B9F0AA89BB89E889F9898C9185FDA1
:1003000003C0808186FD0DC00FB607FCF7CF8C912E
:1003100085FFF2CF808185FFEDCFCE010E940501E0
:10032000E9CFDF91CF91089590E0FC01EC55FF4FAC
:100330002491FC01E057FF4F3491FC01E458FF4F3A
:10034000E491EE23C9F0222339F0233001F1A8F41F
:10035000213019F1223029F1F0E0EE0FFF1FEE58A5
:10036000FF4FA591B4918FB7F894EC91611126C01D
:1003700030953E233C938FBF08952730A9F0283055
:10038000C9F0243049F7809180008F7D03C08091AF
:1003900080008F7780938000DFCF84B58F7784BD16
:1003A000DBCF84B58F7DFBCF8091B0008F778093BA
:1003B000B000D2CF8091B0008F7DF9CF3E2BDACF45
:1003C000CF93DF9390E0FC01E057FF4F24918458D6
:1003D0009F4FFC0184918823D1F090E0880F991FF2
:1003E000FC01E859FF4FA591B491FC01EE58FF4F75
:1003F000C591D49161110EC09FB7F8948C91E22FF2
:10040000E0958E238C932881E223E8839FBFDF91C0
:10041000CF9108958FB7F894EC91E22BEC938FBFB6
:10042000F6CF3FB7F89480914B0190914C01A09189
:100430004D01B0914E0126B5A89B05C02F3F19F084
:100440000196A11DB11D3FBFBA2FA92F982F882754
:10045000BC01CD01620F711D811D911D42E0660F2F
:10046000771F881F991F4A95D1F708958F929F9201
:10047000AF92BF92CF92DF92EF92FF924B015C015D
:100480000E9411026B017C010E9411026C197D090E
:100490008E099F09683E734081059105A8F321E00C
:1004A000821A9108A108B10888EEC80E83E0D81E10
:1004B000E11CF11C81149104A104B10429F7FF90FF
:1004C000EF90DF90CF90BF90AF909F908F90089566
:1004D000089590E080E00895FC0101900020E9F784
:1004E0003197AF01481B590BBC0184EF91E00C948C
:1004F00087008F929F92AF92BF920F931F93CF93DB
:10050000DF93CDB7DEB7A1970FB6F894DEBF0FBE6D
:10051000CDBF19A2423008F44AE08E010F5D1F4F93
:10052000842E912CB12CA12CA50194010E941C09B0
:10053000E62FB901CA01EA30F4F4E05DD801EE9388
:100540008D01232B242B252B79F790E080E0109749
:1005500019F0CD010E946C02A1960FB6F894DEBF8F
:100560000FBECDBFDF91CF911F910F91BF90AF9084
:100570009F908F900895E95CE1CFCF93DF93EC01DA
:1005800060E08E810E94940161E08E810E9494015E
:1005900060E08E810E9494018BE891E00197F1F771
:1005A000DF91CF910895CF92DF92EF92FF920F9358
:1005B0001F93CF93DF936C017C0187E0E80EF11C61
:1005C000D0E0C0E0062F10E0B8010C2E02C07595F7
:1005D00067950A94E2F76170F70181917F010E94AB
:1005E00094012196C430D10579F7C601DF91CF91EE
:1005F0001F910F91FF90EF90DF90CF900C94BD0270
:10060000CF92DF92EF92FF920F931F93CF93DF93DE
:10061000EC01F62E642F8C810E9494018D818F3F16
:1006200019F060E00E9494010F2D10E08F8584FF87
:1006300025C06E0187E0C80ED11CF12CE12CB80159
:100640000E2C02C0759567950A94E2F76170F60169
:1006500081916F010E949401FFEFEF1AFF0A88E079
:10066000E816F10461F7CE01DF91CF911F910F9150
:10067000FF90EF90DF90CF900C94BD02B80184E022
:10068000759567958A95E1F7CE010E94D3026F2D8B
:10069000CE01DF91CF911F910F91FF90EF90DF90EE
:1006A000CF900C94D30240E0682F84EF91E00C943B
:1006B0000003CF93DF93823029F490910302986076
:1006C00090930302809307021092080280E48093C3
:1006D000090280E180930A0280E580930B0261E0C9
:1006E0008091F8010E94E0018091F9018F3F19F09B
:1006F00061E00E94E00161E08091FA010E94E00166
:10070000C4EFD1E09E01245F31408091030284FD5B
:100710000BC084E090E021962817390744F461E08B
:100720008E810E94E001EECF88E090E0F4CF8BE371
:100730009DE00197F1F760E08091F8010E9494013B
:1007400060E08091FA010E9494018091F9018F3F4D
:1007500019F060E00E9494018091030284FD39C089
:1007600063E084EF91E00E94D302CBE4D6E4CE01B3
:100770000197F1F763E084EF91E00E94D3022197A3
:10078000F1F763E084EF91E00E94D30283E592E009
:100790000197F1F762E084EF91E00E94D30280912B
:1007A000030280620E94530384E0809304028CE081
:1007B0000E94530381E00E9453038BE39FE1019762
:1007C000F1F782E08093050286E0DF91CF910C94EF
:1007D000530380620E9453038BE496E40197F1F780
:1007E0008091030280620E94530383E592E00197A7
:1007F000F1F78091030280620E945303D0CF41E061
:100800000E94000381E090E008954F925F926F9202
:100810007F928F929F92AF92BF92CF92DF92EF9290
:10082000FF920F931F93CF936B017C01742EAC0149
:100830009B010E941709882399F08EE191E0CF91E6
:100840001F910F91FF90EF90DF90CF90BF90AF90EE
:100850009F908F907F906F905F904F900C946C0260
:1008600046015701E894B7F82FEF3FEF4FE75FE7F6
:10087000C501B4010E94170981110DC02FEF3FEF90
:100880004FE75FE7C501B4010E944D0718161CF43D
:1008900082E291E0D4CF2FEF3FEF4FE75FE4C70153
:1008A000B6010E94A50818161CF486E291E0C7CF95
:1008B0002FEF3FEF4FE75FECC701B6010E944D07F6
:1008C00087FDF3CF20E030E0A901C701B6010E9407
:1008D0004D0710E000E087FF0CC041E06DE284EFBF
:1008E00091E00E940003F7FAF094F7F8F09401E029
:1008F00010E0C0E060E070E080E09FE37C1641F033
:1009000020E030E040E251E40E945207CF5FF6CF92
:10091000A70196010E94E1064B015C010E94C407F9
:100920002B013C014AE00E947902080F191FCC23D9
:10093000C9F1C301B2010E94F3079B01AC01C501DB
:10094000B4010E94E0064B015C0141E06EE284EFDD
:1009500091E00E9400030F5F1F4FC15018F120E08B
:1009600030E040E251E4C501B4010E94AA082B0125
:100970003C010E94C4074B01B12CA12C4AE0C501E7
:10098000B4010E947902080F191FC501B4010E9429
:10099000F3079B01AC01C301B2010E94E0064B01C9
:1009A0005C01DBCFC801CF911F910F91FF90EF90B9
:1009B000DF90CF90BF90AF909F908F907F906F907F
:1009C0005F904F9008951F920F920FB60F921124CF
:1009D0002F933F934F935F936F937F938F939F9347
:1009E000AF93BF93EF93FF9387E591E00E940501DA
:1009F000FF91EF91BF91AF919F918F917F916F91F7
:100A00005F914F913F912F910F900FBE0F901F90CC
:100A100018951F920F920FB60F9211242F938F9358
:100A20009F93EF93FF93E0916701F09168018081BC
:100A3000E0916D01F0916E0182FD1BC0908180916B
:100A400070018F5F8F7320917101821741F0E091E7
:100A50007001F0E0E95AFE4F958F80937001FF918D
:100A6000EF919F918F912F910F900FBE0F901F903C
:100A700018958081F4CF1F920F920FB60F92112418
:100A80002F933F938F939F93AF93BF938091470191
:100A900090914801A0914901B0914A0130914601DD
:100AA00023E0230F2D3758F50196A11DB11D20938A
:100AB00046018093470190934801A0934901B09368
:100AC0004A0180914B0190914C01A0914D01B09150
:100AD0004E010196A11DB11D80934B0190934C01D5
:100AE000A0934D01B0934E01BF91AF919F918F9113
:100AF0003F912F910F900FBE0F901F90189526E8F1
:100B0000230F0296A11DB11DD2CFE7E5F1E01382BC
:100B1000128288EE93E0A0E0B0E084839583A68300
:100B2000B78384E091E09183808385EC90E09587A2
:100B3000848784EC90E09787868780EC90E0918BA7
:100B4000808B81EC90E0938B828B82EC90E0958B94
:100B5000848B86EC90E0978B868B118E128E138E91
:100B6000148EE4EFF1E01382128286E191E091832A
:100B700080838CE084838FEF85838BE0868385E0A0
:100B8000878384E0808783E0818782E08287138681
:100B9000148615861686178681E00C94590378947E
:100BA00084B5826084BD84B5816084BD85B5826072
:100BB00085BD85B5816085BD80916E008160809323
:100BC0006E0010928100809181008260809381008C
:100BD000809181008160809381008091800081609C
:100BE000809380008091B10084608093B1008091F7
:100BF000B00081608093B00080917A00846080931F
:100C00007A0080917A00826080937A0080917A00E5
:100C1000816080937A0080917A00806880937A0066
:100C20001092C10060E08FE00E94E001E091670156
:100C3000F091680182E08083E0916301F0916401AA
:100C40001082E0916501F09166018FEC8083109233
:100C50006F01E0916B01F0916C0186E08083E0917F
:100C60006901F0916A01808180618083E09169016E
:100C7000F0916A01808188608083E0916901F09140
:100C80006A01808180688083E0916901F0916A0146
:100C900080818F7D808382E00E94590364EF71E040
:100CA00080E090E00E94360211E4C0E0D0E01093B2
:100CB0007C0080917A00806480937A0080917A0031
:100CC00086FDFCCF8091780060917900762F682FA7
:100CD000072E000C880B990B0E94F50720E030E0EE
:100CE0004AEF53E40E94AA0820E030EC4FE754E4B6
:100CF0000E945207609353017093540180935501F1
:100D00009093560126E636E646EE5FE30E94AA0877
:100D100020E030E040E052E40E94E10660934F01A1
:100D2000709350018093510190935201E1E08091C2
:100D300007028111E0E0E195F0E0EC50FE4F84897C
:100D400080680E9453038AE291E00E946C026091E5
:100D5000530170915401809155019091560142E0E8
:100D60000E940504E0910702E23040F5E150F0E016
:100D7000EC50FE4F848980680E94530387E391E022
:100D80000E946C0260914F0170915001809151015D
:100D90009091520142E00E94050468EE73E080E009
:100DA00090E00E943602209709F481CF0E94F10062
:100DB000882309F47CCF0E94000079CFE1E0D7CFEF
:100DC0005058BB27AA270E94F8060C946B080E9473
:100DD0005D0838F00E94640820F039F49F3F19F450
:100DE00026F40C945A080EF4E095E7FB0C94540892
:100DF000E92F0E947C0858F3BA176207730784072B
:100E0000950720F079F4A6F50C949E080EF4E09571
:100E10000B2EBA2FA02D0B01B90190010C01CA01B4
:100E2000A0011124FF27591B99F0593F50F4503E5F
:100E300068F11A16F040A22F232F342F4427585F51
:100E4000F3CF469537952795A795F0405395C9F769
:100E50007EF41F16BA0B620B730B840BBAF0915021
:100E6000A1F0FF0FBB1F661F771F881FC2F70EC0C0
:100E7000BA0F621F731F841F48F487957795679593
:100E8000B795F7959E3F08F0B0CF9395880F08F07F
:100E90009927EE0F9795879508950E94300808F4DA
:100EA00081E008950E9466070C946B080E94640814
:100EB00058F00E945D0840F029F45F3F29F00C943F
:100EC000540851110C949F080C945A080E947C08F5
:100ED00068F39923B1F3552391F3951B550BBB2769
:100EE000AA2762177307840738F09F5F5F4F220FAE
:100EF000331F441FAA1FA9F335D00E2E3AF0E0E8A5
:100F000032D091505040E695001CCAF72BD0FE2FEE
:100F100029D0660F771F881FBB1F26173707480782
:100F2000AB07B0E809F0BB0B802DBF01FF2793583A
:100F30005F4F3AF09E3F510578F00C9454080C94A2
:100F40009F085F3FE4F3983ED4F3869577956795C5
:100F5000B795F7959F5FC9F7880F911D969587956F
:100F600097F90895E1E0660F771F881FBB1F62178E
:100F700073078407BA0720F0621B730B840BBA0B4C
:100F8000EE1F88F7E09508950E94840888F09F5727
:100F900098F0B92F9927B751B0F0E1F0660F771F9D
:100FA000881F991F1AF0BA95C9F714C0B13091F093
:100FB0000E949E08B1E008950C949E08672F782F38
:100FC0008827B85F39F0B93FCCF386957795679558
:100FD000B395D9F73EF490958095709561957F4FC4
:100FE0008F4F9F4F0895E89409C097FB3EF490956A
:100FF0008095709561957F4F8F4F9F4F9923A9F0F2
:10100000F92F96E9BB279395F69587957795679580
:10101000B795F111F8CFFAF4BB0F11F460FF1BC0C4
:101020006F5F7F4F8F4F9F4F16C0882311F096E957
:1010300011C0772321F09EE8872F762F05C0662305
:1010400071F096E8862F70E060E02AF09A95660FBE
:10105000771F881FDAF7880F9695879597F9089577
:10106000990F0008550FAA0BE0E8FEEF16161706B9
:10107000E807F907C0F012161306E407F50798F021
:10108000621B730B840B950B39F40A2661F0232B3A
:10109000242B252B21F408950A2609F4A140A695B6
:1010A0008FEF811D811D089597F99F6780E870E09B
:1010B00060E008959FEF80EC089500240A941616CE
:1010C000170618060906089500240A941216130636
:1010D000140605060895092E0394000C11F48823C4
:1010E00052F0BB0F40F4BF2B11F460FF04C06F5FE0
:1010F0007F4F8F4F9F4F089557FD9058440F551FB6
:1011000059F05F3F71F04795880F97FB991F61F089
:101110009F3F79F087950895121613061406551F00
:10112000F2CF4695F1DF08C0161617061806991F6C
:10113000F1CF86957105610508940895E894BB2761
:1011400066277727CB0197F908950E94300808F4A5
:101150008FEF08950E94BD080C946B080E945D08F3
:1011600038F00E94640820F0952311F00C94540884
:101170000C945A0811240C949F080E947C0870F368
:10118000959FC1F3950F50E0551F629FF001729F2C
:10119000BB27F00DB11D639FAA27F00DB11DAA1F3B
:1011A000649F6627B00DA11D661F829F2227B00D88
:1011B000A11D621F739FB00DA11D621F839FA00D13
:1011C000611D221F749F3327A00D611D231F849F63
:1011D000600D211D822F762F6A2F11249F575040BA
:1011E0009AF0F1F088234AF0EE0FFF1FBB1F661F35
:1011F000771F881F91505040A9F79E3F510580F0FE
:101200000C9454080C949F085F3FE4F3983ED4F389
:10121000869577956795B795F795E7959F5FC1F7A1
:10122000FE2B880F911D9695879597F908950E943A
:101230003008880B990B0895A1E21A2EAA1BBB1B3C
:10124000FD010DC0AA1FBB1FEE1FFF1FA217B30792
:10125000E407F50720F0A21BB30BE40BF50B661FA8
:10126000771F881F991F1A9469F76095709580956C
:1012700090959B01AC01BD01CF010895EE0FFF1FBA
:101280000590F491E02D0994F894FFCF0000000040
:1012900027018700B4007401E500C300D7000000F7
:1012A0000000FF038700690268026E616E00696ECC
:1012B00066006F766600696E2044656772656543F7
:1012C0003D2000696E2046616872656E68656974CC
:0212D0003D00DF
:107E0000112484B714BE81FFF0D085E080938100F7
:107E100082E08093C00088E18093C10086E0809377
:107E2000C20080E18093C4008EE0C9D0259A86E02C
:107E300020E33CEF91E0309385002093840096BBD3
:107E4000B09BFECF1D9AA8958150A9F7CC24DD24C4
:107E500088248394B5E0AB2EA1E19A2EF3E0BF2EE7
:107E6000A2D0813461F49FD0082FAFD0023811F036
:107E7000013811F484E001C083E08DD089C08234E0
:107E800011F484E103C0853419F485E0A6D080C0E4
:107E9000853579F488D0E82EFF2485D0082F10E0AE
:107EA000102F00270E291F29000F111F8ED06801E7
:107EB0006FC0863521F484E090D080E0DECF843638
:107EC00009F040C070D06FD0082F6DD080E0C81688
:107ED00080E7D80618F4F601B7BEE895C0E0D1E017
:107EE00062D089930C17E1F7F0E0CF16F0E7DF06D8
:107EF00018F0F601B7BEE89568D007B600FCFDCFD4
:107F0000A601A0E0B1E02C9130E011968C91119780
:107F100090E0982F8827822B932B1296FA010C0160
:107F200087BEE89511244E5F5F4FF1E0A038BF0790
:107F300051F7F601A7BEE89507B600FCFDCF97BE46
:107F4000E89526C08437B1F42ED02DD0F82E2BD052
:107F50003CD0F601EF2C8F010F5F1F4F84911BD097
:107F6000EA94F801C1F70894C11CD11CFA94CF0C13
:107F7000D11C0EC0853739F428D08EE10CD085E9AC
:107F80000AD08FE07ACF813511F488E018D01DD067
:107F900080E101D065CF982F8091C00085FFFCCF94
:107FA0009093C60008958091C00087FFFCCF809118
:107FB000C00084FD01C0A8958091C6000895E0E648
:107FC000F0E098E1908380830895EDDF803219F02E
:107FD00088E0F5DFFFCF84E1DECF1F93182FE3DFCA
:107FE0001150E9F7F2DF1F91089580E0E8DFEE27F6
:047FF000FF270994CA
:027FFE00040479
:00000001FF
